:100000000C9467010C9439090C9412090C94EB08B8
:100010000C94C4080C948F010C948F010C949D08CF
:100020000C948F010C948F010C94C5030C942E0436
:100030000C948F010C948F010C948F010C948F0100
:100040000C948F010C948F010C948F010C948F01F0
:100050000C948F010C948F010C948F010C94530815
:100060000C948F010C948F010C948F010C948F01D0
:100070000C948F010C948F010C948F010C948F01C0
:100080000C948F010C948F010C948F010C948F01B0
:100090000C948F010C948F010C948F010C948F01A0
:1000A0000C948F010C948F010C948F01310734074D
:1000B000230727072B0755075507550738073C0720
:1000C000400746074A07550750070000000200098D
:1000D0000F0000030401000C0000000000000000FD
:1000E000000000000000000000080B0002020201F6
:1000F00000090400000102020000052400100105AF
:1001000024010101042402060524060001070581DB
:100110000310004009040100020A00000007050264
:100120000240000007058302400000040309044167
:1001300064616672756974004665617468657220F1
:10014000333275340012010002000000409A230C83
:100150008000010102030112010002EF0201409A36
:10016000230C8000010102030107060504010008B9
:100170000A0B0C0D0900000000250028002B002EA2
:1001800000310000000000240027002A002D00306C
:10019000000404040404030405020202020403022E
:1001A000020202060606060606040402020204040F
:1001B0000408020110408040102040804080080266
:1001C00004018040201002011080102040402000D7
:1001D000407A10F35A00A0724E18090010A5D4E816
:1001E0000000E87648170000E40B54020000CA9AA9
:1001F0003B000000E1F505000080969800000040FB
:10020000420F000000A0860100000010270000003F
:1002100000E803000000006400000000000A000085
:100220000000000100000000002C76D888DC674F39
:100230000823DFC1DFAE59E1B1B796E5E3E453C669
:100240003AE651997696E8E6C28426EB898C9B6261
:10025000ED407C6FFCEFBC9C9F40F2BAA56FA5F40B
:1002600090055A2AF75C936B6CF9676DC11BFCE033
:10027000E40D47FEF520E6B500D0ED902E03009486
:100280003577050080841E080000204E0A0000001B
:10029000C80C333333330F986E12831141EF8D2125
:1002A00014893BE65516CFFEE6DB18D1844B381B8C
:1002B000F77C1D901DA4BBE424203284725E228151
:1002C00000C9F124ECA1E53D27007410FE0B1124B8
:1002D0001FBECFEFDAE0DEBFCDBF12E0A0E0B1E09D
:1002E000E2E9F0E302C005900D92A03BB107D9F717
:1002F00023E0A0EBB2E001C01D92AC35B207E1F7FC
:1003000011E0C6E6D1E004C02197FE010E94B210C0
:10031000C536D107C9F70E94020C0C943C180C9406
:1003200000004091BD025091BE022091BB0230916D
:10033000BC0242175307B4F49091E8009570E1F3C2
:100340009091E80092FD19C08093F1008091BD0268
:100350009091BE0201968F739927892B19F48EEF25
:100360008093E8008091BD029091BE020196909327
:10037000BE028093BD0281E0089580E00895DF927F
:10038000EF92FF920F931F93CF93DF93D82E8A01A2
:100390007B01E40EF51EEB01CE15DF0571F0D7FEF3
:1003A00003C0FE01849101C088810E9491012196C1
:1003B0008111F2CF8FEF9FEF01C0C801DF91CF9184
:1003C0001F910F91FF90EF90DF900895CF92DF92F1
:1003D000EF92FF920F931F93CF93DF936C017A01FB
:1003E0008B01C0E0D0E0CE15DF0589F0D8016D911A
:1003F0008D01D601ED91FC910190F081E02DC601B7
:100400000995892B11F47E0102C02196ECCFC7011A
:10041000DF91CF911F910F91FF90EF90DF90CF90E0
:100420000895CF93DF931F92CDB7DEB76983DC01C8
:10043000ED91FC910280F381E02D41E050E0BE019E
:100440006F5F7F4F09950F90DF91CF91089583E003
:100450008093E9008091F200882319F08AE3809369
:10046000E8000895FC018485958597FD0BC09FB732
:10047000F89482E08093E9008091F2009FBF90E0C1
:10048000019608959FB7F89482E08093E9008091E7
:10049000F2009FBF90E0089508950895CF93DF93F1
:1004A0001F92CDB7DEB76983DC01ED91FC9102802C
:1004B000F381E02D41E050E0BE016F5F7F4F099571
:1004C0000F90DF91CF9108950F931F93CF93DF93F8
:1004D000EC0188819981009729F02A813B812617B8
:1004E000370788F48B016F5F7F4F0E94FA120097E5
:1004F00061F0998388831B830A832C813D81232BA0
:1005000011F4FC01108281E001C080E0DF91CF9105
:100510001F910F910895CF93DF93EC01888199810A
:10052000009711F00E946212198218821D821C82AB
:100530001B821A82DF91CF910895EF92FF920F9361
:100540001F93CF93DF93EC017B018A01BA010E94D4
:100550006402811104C0CE010E948B0207C01D837A
:100560000C83B701888199810E94CD13CE01DF9160
:10057000CF911F910F91FF90EF9008950F931F93CC
:10058000CF93DF931F92CDB7DEB782E0898342E439
:1005900050E069EE70E080E80E94BF010E94AD0B60
:1005A000DC0112960D911C9113970115110569F04C
:1005B000D801ED91FC910280F381E02DBE016F5FC7
:1005C0007F4FC801099597FF07C089810F90DF9180
:1005D000CF911F910F910895F80100851185E5CF06
:1005E000CF93DF931F92CDB7DEB7FC01848595854D
:1005F00097FD05C02FEF3FEF358724870BC0CE0155
:1006000001960E94840B019719F4898190E002C041
:100610008FEF9FEF0F90DF91CF9108950F931F936E
:10062000CF93DF931F92CDB7DEB78C01FC01848599
:10063000958597FF0EC0CE0101960E94840B01970D
:1006400019F4298130E002C02FEF3FEFF801358720
:100650002487F801848595850F90DF91CF911F91B4
:100660000F910895EF92FF920F931F93CF93DF9313
:10067000EC01FB0184819581E080F1800C811D817A
:10068000E114F104B1F00097B9F0080F191FB80197
:10069000CE010E946402882361F0288139818C8117
:1006A0009D81B701820F931F0E94CD131D830C8380
:1006B00003C0CE010E948B02CE01DF91CF911F912A
:1006C0000F91FF90EF900895CF93DF93EC016115A8
:1006D000710559F0FB0101900020E9F73197AF0156
:1006E000461B570B0E949D0202C00E948B02CE0146
:1006F000DF91CF910895FC01808191810C94621269
:10070000EF92FF920F931F93CF93DF93CDB7DEB796
:10071000A1970FB6F894DEBF0FBECDBF7C01CB0111
:10072000BA01F7011182108213821282158214829B
:1007300042E0420F8E010F5F1F4F0E94D413BC0195
:10074000C7010E946403A1960FB6F894DEBF0FBEE6
:10075000CDBFDF91CF911F910F91FF90EF90089542
:10076000FC0111821082138212821582148261159B
:10077000710551F0FB0101900020E9F73197AF01BD
:10078000461B570B0C949D0208951F920F920FB6B3
:100790000F9211248F939F938091E1009091E1003B
:1007A000937F9093E10083FF0FC01092E90091E0E6
:1007B0009093EB001092EC0092E39093ED00109276
:1007C000D90298E09093F00082FF1CC093E09093D0
:1007D000E9009091F200992319F09AE39093E800D0
:1007E0009091BF02992329F09091BF02915090936C
:1007F000BF029091D802992329F09091D80291508C
:100800009093D80284FF10C08091E2008E7E8160B8
:100810008093E2008091E1008F7E8093E1008091DF
:10082000C1028E7E806111C080FF11C08091E20004
:100830008E7E80618093E2008091E1008E7E8093C5
:10084000E1008091C1028E7E81608093C1029F9100
:100850008F910F900FBE0F901F9018951F920F92BF
:100860000FB60F921124CF92DF92EF92FF920F9367
:100870001F932F933F934F935F936F937F938F9328
:100880009F93AF93BF93EF93FF93CF93DF93CDB736
:10089000DEB76C97DEBFCDBF1092E9008091E80013
:1008A00083FF0CC2FE017596DE2ECF2E88E08E0FE0
:1008B0008E1729F09091F10090833196F9CF84E65C
:1008C0008093D80282EF8093E8008D8987FF05C06E
:1008D0009091E80090FFFCCF03C09EEF9093E8005A
:1008E000982F907609F0C5C09E892F89188D911197
:1008F0000CC0803829F48091C2028093F10002C0BC
:100900001092F1001092F1004EC1422F50E0512B95
:10091000913051F4811147C14130510509F043C173
:100920008091C2028D7F0BC0933061F481113BC175
:100930004130510509F037C18091C2028260809335
:10094000C20231C1953041F48091E80080FFFCCFB4
:1009500020682093E30027C1963009F05EC0EB8C3D
:10096000FC8C1092E9001092BE021092BD0212306F
:1009700091F51092BC021092BB020E94BE0299E057
:10098000BE016F5F7F4FDB01E92F1D92EA95E9F70A
:1009900099831A8391E09E8390EA98879AEF9987CA
:1009A0002091BD023091BE02275F3F4F3C832B83D5
:1009B0008D831092E9001092BE021092BD02F09257
:1009C000BC02E092BB0249E050E080E00E94BF011F
:1009D0000E94BE02E8C0F092BC02E092BB020E94FC
:1009E000AD0BDC011296ED90FC901397E114F1042D
:1009F00009F4C7C0D701ED91FC910480F581E02D89
:100A00006D2D7C2DC7010995009719F00CF0CBC016
:100A1000CEC0F701E084F184E9CF973009F4C7C074
:100A2000983021F481E08093F100BDC0993009F045
:100A3000BAC0837009F0BBC0E1E2F1E081E021E0DF
:100A400036E39081992361F08093E9002093EB00D5
:100A500091919093EC003093ED008F5F873089F790
:100A60008EE78093EA001092EA008F898093D90282
:100A70009AC08B8D9C8D1092E9001092BE0210924C
:100A8000BD029093BC028093BB02898D81115FC02F
:100A90008E899D89913A59F4813209F088C047E0E6
:100AA00050E064E071E080E00E94BF017CC09132C0
:100AB00009F07DC0833289F4888D90E0982F8827D3
:100AC0002F89822BA0E0B0E0809300019093010178
:100AD000A0930201B093030166C08032B1F480910B
:100AE000E80082FFFCCFE4E0F1E087E08E0F8E1794
:100AF00029F09091F10090833196F9CF84E68093AC
:100B0000D8028BEF8093E80006C0823209F04BC018
:100B10008F8980930B018091C002882319F0EEEF3A
:100B2000FAE002C0E0E0F8E0809104019091050154
:100B3000A0910601B0910701803B9440A105B10549
:100B400009F0A0C080910B0180FF83C09BC00E9470
:100B5000AD0BDC0112960D911C9113970115110537
:100B600031F1D801ED91FC910190F081E02D6D2DD6
:100B70007C2DC8010995811116C0F80100851185E9
:100B8000EDCF1130C1F0133091F48F89882309F42F
:100B900055C08230E9F440E86CE088E391E00E94BF
:100BA000C10B882321F08EEF8093E80087C081E29B
:100BB0008093EB0083C08B8D9C8D089711F410936C
:100BC000BA028091BA02811136C065E471E038C082
:100BD000813029F440E868E08FE291E0E0CF833093
:100BE00031F70E94AD0BDC011296ED90FC9013974B
:100BF0008E010F5F1F4F6801E114F10479F0D701F6
:100C0000ED91FC910680F781E02DB801C7010995AF
:100C1000080F111DF701E084F184EECFD8011C927A
:100C2000F60101900020E9F73197BF016C197D09A9
:100C300040E0C601B4CF67E571E002C06BE271E04D
:100C40006115710509F4B3CFFB01449150E080E8D0
:100C50002BCFEE3F2AE0F20731F080819181909313
:100C6000FF0A8093FE0A87E797E7918380839BE0E2
:100C700088E10FB6F894A895809360000FBE90931A
:100C8000600091CF0FB6F894A895809160008861BC
:100C900080936000109260000FBEA895EE3F8AE03E
:100CA000F80739F08091FE0A9091FF0A91838083C2
:100CB0007ACF1092FF0A1092FE0A75CF6C960FB68B
:100CC000F894DEBF0FBECDBFDF91CF91FF91EF91C2
:100CD000BF91AF919F918F917F916F915F914F9154
:100CE0003F912F911F910F91FF90EF90DF90CF9048
:100CF0000F900FBE0F901F9018956115710579F038
:100D0000FB0101900020E9F73197AF01461B570B1B
:100D1000DC01ED91FC910280F381E02D099480E0EB
:100D200090E008954F925F926F927F92EF92FF92C0
:100D30000F931F93CF93DF93CDB7DEB7A1970FB675
:100D4000F894DEBF0FBECDBF7C01FA01CB0119A222
:100D5000223008F42AE08E010F5D1F4F422E512CE5
:100D6000612C712CBF01A30192010E940B18F901A3
:100D7000CA01015011096A3014F4605D01C0695C58
:100D8000D8016C93232B242B252B61F7B801C701C5
:100D90000E947D06A1960FB6F894DEBF0FBECDBFB0
:100DA000DF91CF911F910F91FF90EF907F906F9007
:100DB0005F904F900895CF92DF92EF92FF920F9342
:100DC0001F93CF93DF93EC016A017B01E881F981E6
:100DD0000190F081E02D6DE209958C0144275527A3
:100DE000BA014C195D096E097F092AE0CE010E9403
:100DF0009206800F911FDF91CF911F910F91FF906D
:100E0000EF90DF90CF9008950C947D06362F90E000
:100E1000FC01E653FF4F4491FC01E055FE4F249145
:100E2000FC01EF56FE4F8491882309F451C04423FE
:100E3000E1F150E0FA013197EF30F105B0F5EA5AEF
:100E4000FF4F0C94B210909180009F7707C0909153
:100E500080009F7D03C090918000977F90938000D9
:100E600024C094B59F7702C094B59F7D94BD1DC0EA
:100E7000909190009F7707C0909190009F7D03C054
:100E800090919000977F909390000FC09091C00038
:100E90009F7703C09091C0009F7D9093C00005C0D4
:100EA0009091C200977F9093C200E82FF0E0EE0F80
:100EB000FF1FEB58FE4FA591B4918FB7F894EC91BA
:100EC000311103C020952E2301C02E2B2C938FBFF0
:100ED00008953FB7F8948091B6029091B702A0911F
:100EE000B802B091B90226B5A89B05C02F3F19F0F2
:100EF0000196A11DB11D3FBFBA2FA92F982F88279A
:100F0000820F911DA11DB11DBC01CD0143E0660FF3
:100F1000771F881F991F4A95D1F708958F929F9246
:100F2000AF92BF92CF92DF92EF92FF926B017C0162
:100F30000E9469074B015C01C114D104E104F10472
:100F4000F1F00E946907DC01CB0188199909AA090F
:100F5000BB09883E9340A105B10570F321E0C21A98
:100F6000D108E108F10888EE880E83E0981EA11CE4
:100F7000B11CC114D104E104F10419F7DDCFFF90D5
:100F8000EF90DF90CF90BF90AF909F908F9008959B
:100F90008F929F92AF92BF92CF92DF92EF92FF9289
:100FA0000F931F93CF93DF935C016B018A018091B4
:100FB0000B01882309F45DC08091D902882309F4CC
:100FC00058C08091C10280FF05C08091E00082601E
:100FD0008093E000E8018AEFF82E93E0E92E2FE3FA
:100FE000822E3AE3932E209709F43DC08FB7F894F0
:100FF000E092E9009091E80095FF06C09091F20020
:10100000282D291B922F01C090E08FBF91110AC09B
:10101000FA94FF2071F161E070E080E090E00E94BE
:101020008E07E1CF292F30E0C217D3070CF49C2F95
:101030008FB7F894E092E9002091E80025FF11C0F5
:10104000292F30E0C21BD30BF601915020F04191C3
:101050004093F100FACFC20ED31E9091E80095FFA5
:1010600012C08FBFC0CF84E68093BF021016110656
:1010700044F081E090E0F5019383828380E090E08A
:1010800005C0C80103C09092E800EBCFDF91CF917B
:101090001F910F91FF90EF90DF90CF90BF90AF9096
:1010A0009F908F9008951F920F920FB60F92112468
:1010B0002F933F938F939F93AF93BF938091B202EF
:1010C0009091B302A091B402B091B5023091B102F7
:1010D00026E0230F2D3720F40296A11DB11D05C077
:1010E00029E8230F0396A11DB11D2093B10280931F
:1010F000B2029093B302A093B402B093B502809170
:10110000B6029091B702A091B802B091B9020196CF
:10111000A11DB11D8093B6029093B702A093B802AF
:10112000B093B902BF91AF919F918F913F912F9151
:101130000F900FBE0F901F9018951F920F920FB631
:101140000F9211242F933F934F935F936F937F934D
:101150008F939F93AF93BF93EF93FF93E09114010D
:10116000F09115010995FF91EF91BF91AF919F917A
:101170008F917F916F915F914F913F912F910F9040
:101180000FBE0F901F9018951F920F920FB60F92DF
:1011900011242F933F934F935F936F937F938F937C
:1011A0009F93AF93BF93EF93FF93E0911201F09160
:1011B00013010995FF91EF91BF91AF919F918F918D
:1011C0007F916F915F914F913F912F910F900FBE43
:1011D0000F901F9018951F920F920FB60F92112427
:1011E0002F933F934F935F936F937F938F939F932F
:1011F000AF93BF93EF93FF93E0911001F091110132
:101200000995FF91EF91BF91AF919F918F917F9140
:101210006F915F914F913F912F910F900FBE0F9063
:101220001F9018951F920F920FB60F9211242F93B3
:101230003F934F935F936F937F938F939F93AF935E
:10124000BF93EF93FF93E0910E01F0910F01099589
:10125000FF91EF91BF91AF919F918F917F916F918E
:101260005F914F913F912F910F900FBE0F901F9064
:1012700018951F920F920FB60F9211242F933F9340
:101280004F935F936F937F938F939F93AF93BF938E
:10129000EF93FF93E0910C01F0910D010995FF91FF
:1012A000EF91BF91AF919F918F917F916F915F91DE
:1012B0004F913F912F910F900FBE0F901F90189557
:1012C000EF92FF921F93CF93DF931F92CDB7DEB7BC
:1012D0007C01162F60E0FC01868549830E94060789
:1012E000F701948585859CBD8DBD1EBD000049819B
:1012F0000DB407FEFDCF8EB54EBD00000DB407FE48
:10130000FDCF1EB561E0F70186850E940607812F9B
:101310000F90DF91CF911F91FF90EF9008956F771D
:1013200040E00C946009CF9362E18AE293E00E946E
:101330008F09C82F482F62E98AE293E00E94600972
:10134000C5FD2DC0109241031092400380914203CD
:1013500090914303892B11F062E201C063E18AE2BC
:1013600093E00E948F09C82F60E18AE293E00E9417
:101370008F09482F6DE88AE293E00E946009E091AE
:101380004403F0914503309719F08C2F90E00995B4
:1013900040E06DE88AE293E0CF910C946009CF9130
:1013A0000895EF92FF921F93CF93DF931F92CDB7D3
:1013B000DEB77C01DC01ED91FC910480F581E02D2C
:1013C0000995892B99F06DE0C7010E948F09482F7C
:1013D00060E0C70149830E948F09182F49816DE899
:1013E000C7010E946009812F90E002C08FEF9FEF3C
:1013F0000F90DF91CF911F91FF90EF900895CF93C1
:10140000DF93EC01E881F9810480F581E02D0995F5
:10141000892B59F08E899F8901969F8B8E8B60E076
:10142000CE010E948F0990E002C08FEF9FEFDF9105
:10143000CF910895CF93DF93EC0163E10E948F0970
:10144000282F30E08E899F89A901481B590BCA01BA
:10145000DF91CF9108958F929F92AF92BF92CF92DA
:10146000DF92FF920F931F93CF93DF931F92CDB71D
:10147000DEB76C01B62E4A0162E279830E948F09C1
:10148000F82E90E09C01280D391D79812F3F310500
:1014900031F028F02FEF30E04901881A990A0B2D1E
:1014A000172F5801A80CB91C0A151B0541F0F801AB
:1014B00041918F0160E8C6010E946009F5CF482D77
:1014C0004F0D62EAC6010E946009C4010F90DF91CE
:1014D000CF911F910F91FF90DF90CF90BF90AF9071
:1014E0009F908F9008950F931F93CF93DF93CDB765
:1014F000DEB728970FB6F894DEBF0FBECDBF8C01C4
:1015000064EA71E0CE0101960E94B00364EA71E0E2
:1015100086E493E00E946403012B09F485C08AE20B
:1015200093E00E94FF098AE293E00E941A0A892B45
:1015300039F18AE293E00E94FF098F8318860091B7
:101540004A0310914B030F5F1F4FB80186E493E0ED
:101550000E946402882339F32091460330914703A7
:1015600080914A0390914B03BE01695F7F4F820FC8
:10157000931F0E94CD1310934B0300934A03D3CFC4
:1015800060914603709147036115710549F04091E0
:101590004A0350914B03CE0101960E949D0204C064
:1015A000CE0101960E948B0286E08093B0026AE130
:1015B0008AE293E00E948F09082F10E060913E03B9
:1015C00070913F03072E000C880B990B0E94F216B6
:1015D00024E832EF4EE45EE40E94EB1687FD03C080
:1015E0008DE990E002C084EA90E0081B190B10938B
:1015F000C4020093C3026091C5027091C60280913B
:10160000C7029091C80220E030E040E85FE30E940A
:10161000B9106093C5027093C6028093C70290937D
:10162000C80281E08093C902CE0101960E947B032B
:1016300028960FB6F894DEBF0FBECDBFDF91CF91D5
:101640001F910F910895CF93DF93BC018AED92E033
:101650000E947D06EC0162EA71E08AED92E00E9450
:101660007D068C0F9D1FDF91CF91089590E0FC01C6
:10167000E055FE4F2491FC01EF56FE4F84918823E4
:1016800099F090E0880F991FFC01ED57FE4FA5914E
:10169000B491FC01EB58FE4F859194918FB7F8946B
:1016A000EC91E22BEC938FBF0895CF93DF93E09101
:1016B000DA02F091DB02DC0114964D915C911597F2
:1016C0006D917C910280F381E02D8AED92E0099585
:1016D000EC0162EA71E08AED92E00E947D068C0FD7
:1016E0009D1FDF91CF910895109243031092420302
:1016F0006DE18AE293E00E948F09482F4E7F6DE9E9
:101700008AE293E00C946009FC018091D902811176
:1017100003C08FEF9FEF08959FB7F89482E0809306
:10172000E9002091F20030E01216130614F421E0D3
:1017300030E02115310551F084E68093D802809184
:10174000F10080838091F200882319F09FBFC901C6
:1017500008958BE68093E800F9CF809150038111C2
:101760000DC082E080934C0384E080934D0310927F
:101770004F0310924E0381E0809350038CE493E07A
:101780000895CF92DF92EF92FF920F931F93CF9322
:10179000DF931F92CDB7DEB7182F062FE42E862FCA
:1017A000880F8E5F99830E94910183E00E949101CE
:1017B000F12EC12E9981D92E8C2D8F19801798F476
:1017C000F601E7FE02C0849101C080810E94910170
:1017D000182F80E00E9491018123FFEFCF1ADF0ACA
:1017E0008111EACF01C081E00F90DF91CF911F916D
:1017F0000F91FF90EF90DF90CF90089586E493E0F3
:101800000C947B03CF93DF93CDB7DEB768970FB609
:10181000F894DEBF0FBECDBF789484B5826084BDDE
:1018200084B5816084BD85B5826085BD85B58160E4
:1018300085BD80916E00816080936E001092810062
:10184000809181008260809381008091810081601D
:1018500080938100809180008160809380008091DE
:1018600091008260809391008091910081608093CB
:101870009100809190008160809390008091C100E0
:1018800084608093C1008091C10082608093C10018
:101890008091C10081608093C1008091C30081600C
:1018A0008093C3008091C00082608093C0008091CB
:1018B000C20081608093C20080917A00846080932E
:1018C0007A0080917A00826080937A0080917A0019
:1018D0008E7F80937A0080917A00806880937A006E
:1018E0001092D9021092C2021092C1028091D700C8
:1018F00081608093D70080EA8093D80089B58F7E7D
:1019000089BD89B5826089BD09B400FEFDCF61E063
:1019100070E080E090E00E948E078091D8008F7C7C
:1019200080618093D8008091E000807F8093E00008
:101930008091E1008E7E8093E1008DE08093E20053
:10194000EEEFFFE7859194918B3F9C4D19F481E078
:101950008093C0028FEF9FEF9093E7028093E6029F
:10196000EEE6F1E0E49180917B00E3FB002700F9D3
:1019700010E045E0000F111F4A95E1F78F7D082B1D
:1019800000937B00E770E064E0937C0080917A0034
:10199000806480937A0080917A00182F107486FDFD
:1019A000FACF609178008091790070E0782B072E53
:1019B000000C880B990B611571058105910511F0DB
:1019C0000E94471468E873E180E090E00E948E076F
:1019D00087E491E00E94230B88E090E09093390324
:1019E0008093380384E090E090933B0380933A0324
:1019F00087E090E090933D0380933C0388E00E9451
:101A0000360B80913A030E94360B60E080913A03D6
:101A10000E9406076AE070E080E090E00E948E0776
:101A200061E080913A030E9406076AE070E080E07E
:101A300090E00E948E0761E0809138030E940607C3
:101A40000FB7F8948091CA02811124C0E2EAF1E054
:101A50008491E1ECF1E09491E82FF0E0EE0FFF1FAC
:101A6000ED57FE4FA591B491EC91E92321F461E08B
:101A700081E10E94060781E10E94360B8CB58061EE
:101A80008CBD8CB580648CBD8FE00E94360B80E1EC
:101A90000E94360B8091CA028F5F8093CA020FBFEB
:101AA00062E48AE293E00E948F09823109F0E2C287
:101AB00040E861E88AE293E00E94600980E297E7EB
:101AC00090933F0380933E0349ED66E88AE293E0FA
:101AD0000E94600943E567E88AE293E00E9460099A
:101AE00043E368E88AE293E00E94600940E06EE820
:101AF0008AE293E00E94600940E06FE88AE293E0A6
:101B00000E9460096CE08AE293E00E948F09482FEE
:101B100043606CE88AE293E00E94600944E066EA70
:101B20008AE293E00E9460094FE869E88AE293E064
:101B30000E94600941E861E88AE293E00E9460093E
:101B400043EC61EB8AE293E00E9460094AE067EBB4
:101B50008AE293E00E9460096EE18AE293E00E94CB
:101B60008F098F70482F40676EE98AE293E00E94E8
:101B7000600983E79AE0909345038093440340E033
:101B800060EC8AE293E00E94600980913C039091AE
:101B90003D03009709F473C28130910509F471C2C5
:101BA0008230910509F46FC28330910509F46EC249
:101BB000079769F46AC2133008F083C2113009F440
:101BC00079C280916900836080936900E89A86E514
:101BD00091E00E94230B60E872E08AED92E00E949F
:101BE00004076EE671E08AED92E00E94040780E847
:101BF00092E00E94230B98E0892E912CA12CB12C0D
:101C000008EE13E020E0E22E20E0F22E0E944214C3
:101C1000A50194010E94A217DC01CB010396A11D2E
:101C2000B11D8093D70261E971E08AED92E00E94D4
:101C300004076091D3027091D4028091D5029091F3
:101C4000D6020E949711AB01770F660B770B77FFD7
:101C500005C08AED92E00E94DB0605C02AE08AED0D
:101C600092E00E94920662EA71E08AED92E00E94A0
:101C70007D0641E861E88AE293E00E9460090E94E3
:101C8000740B40E06DE88AE293E00E94600940E056
:101C900062EA8AE293E00E94600965EA71E08AE202
:101CA00093E00E9404074091D70250E0415051094F
:101CB00040F44FEF5FEFBA018AE293E00E94DB0647
:101CC00009C0052E000C660B770B2AE08AE293E030
:101CD0000E94920643E861E88AE293E00E9460096C
:101CE00062E18AE293E00E948F0983FFF9CF48E026
:101CF00062E98AE293E00E94600920E030E040E877
:101D00005FE36091D3027091D4028091D5029091EB
:101D1000D6020E94B9106093D3027093D4028093CC
:101D2000D5029093D6026AEA71E08AED92E00E94B1
:101D300004074091D70250E04150510940F44FEF61
:101D40005FEFBA018AED92E00E94DB0609C0052E22
:101D5000000C660B770B2AE08AED92E00E94920657
:101D600084E692E00E94230B0E9469072B013C014C
:101D70006093CF027093D0028093D1029093D202ED
:101D80008091CB029091CC02A091CD02B091CE0275
:101D900084199509A609B709893E9340A105B105A3
:101DA00008F488C00E94740B45E861E88AE293E079
:101DB0000E9460090E9469076093CB027093CC0275
:101DC0008093CD029093CE028091C9028823C1F204
:101DD0001092C90280E892E00E94230B8AEB91E006
:101DE0000E94230B6091C5027091C6028091C702C8
:101DF0009091C8021C8A1B8A1E8A1D8A188E1F8A0F
:101E00000E949711DC01CB014AE0BE016F5F7F4F5A
:101E10000E945014BE016F5F7F4FCE0143960E9417
:101E2000640366ED71E0CE0101960E94B003BE012D
:101E30006D5E7F4FCE0101960E9432030E94550BCA
:101E4000CE0101960E947B03CE0143960E947B0344
:101E50008091C3029091C4021C8A1B8A1E8A1D8A2B
:101E6000188E1F8A4AE0BE016F5F7F4F0E94501498
:101E7000BE016F5F7F4FCE0143960E9464036FEEF9
:101E800071E0CE0101960E94B003BE016D5E7F4FEE
:101E9000CE0101960E9432030E94550BCE0101969D
:101EA0000E947B03CE0143960E947B0380E892E070
:101EB0000E94230B8091D702809FB001819F700DFB
:101EC0001124072E000C880B990B0E948E0720E02E
:101ED00030E040EA51E46091D3027091D4028091E5
:101EE000D5029091D6020E94EB168111BCC060E829
:101EF00072E08AED92E00E94040766EF71E08AEDDD
:101F000092E00E94040780E892E00E94230B8AE09E
:101F100092E00E94230B4091D3025091D402609131
:101F2000D5027091D60222E0CE0101960E94800374
:101F300062E172E0CE0143960E94B003BE016F5F82
:101F40007F4FCE0143960E9432030E94550BCE0173
:101F500043960E947B03CE0101960E947B03409131
:101F6000C5025091C6026091C7027091C80222E07A
:101F7000CE0101960E9480036AE272E0CE01439690
:101F80000E94B003BE016F5F7F4FCE0143960E9457
:101F900032030E94550BCE0143960E947B03CE0173
:101FA00001960E947B036091C5027091C6028091E8
:101FB000C7029091C8022091D3023091D40240917F
:101FC000D5025091D6020E942511AB01BC0122E03E
:101FD000CE0101960E94800363E472E0CE01439635
:101FE0000E94B003BE016F5F7F4FCE0143960E94F7
:101FF00032030E94550BCE0143960E947B03CE0113
:1020000001960E947B038BE492E00E94230B6DE615
:1020100072E08AED92E00E9404071092C5021092CD
:10202000C6021092C7021092C8021092D3021092F8
:10203000D4021092D5021092D60260E177E280E0DD
:1020400090E00E948E0760E872E08AED92E00E94C4
:1020500004076EE671E08AED92E00E94040780E8D2
:1020600092E00E94230BE114F10409F4CFCD0E9409
:102070000000CCCD83E992E00E94230BFFCF12E059
:1020800005C013E003C011E001C014E0E12FF0E04F
:10209000EE0FFF1FE45FFE4F83E999E09183808399
:1020A000123009F088CD80916900806380936900C7
:1020B000EA9A8DCD809169008C6080936900E99ADD
:1020C00086CD133039F480916900806C809369006B
:1020D000EB9A7DCD143009F074CD80916A00806355
:1020E00080936A00EE9A73CDEAEDF2E013821282D9
:1020F00088EE93E0A0E0B0E084839583A683B78365
:102100008BE291E0918380838FEF9FEF95878487A7
:10211000EAE2F3E0138212828BE391E09183808301
:1021200080E5848781E085878AE090E097878687CD
:1021300089E090E0918B808B82E090E0938B828BA2
:10214000158A148A178A168A118E108E138E128E93
:10215000148215821682178264EA71E086E493E0A5
:102160000C94B003EE0FFF1F0590F491E02D09943D
:102170005058BB27AA270E94D0100C9468170E94C1
:102180005A1738F00E94611720F039F49F3F19F474
:1021900026F40C9457170EF4E095E7FB0C945117B6
:1021A000E92F0E94791758F3BA176207730784075B
:1021B000950720F079F4A6F50C949B170EF4E095A2
:1021C0000B2EBA2FA02D0B01B90190010C01CA01F1
:1021D000A0011124FF27591B99F0593F50F4503E9C
:1021E00068F11A16F040A22F232F342F4427585F8E
:1021F000F3CF469537952795A795F0405395C9F7A6
:102200007EF41F16BA0B620B730B840BBAF091505D
:10221000A1F0FF0FBB1F661F771F881FC2F70EC0FC
:10222000BA0F621F731F841F48F4879577956795CF
:10223000B795F7959E3F08F0B0CF9395880F08F0BB
:102240009927EE0F9795879508950E9439110C9460
:1022500068170E94611758F00E945A1740F029F43D
:102260005F3F29F00C94511751110C949C170C945A
:1022700057170E94791768F39923B1F3552391F307
:10228000951B550BBB27AA2762177307840738F0E5
:102290009F5F5F4F220F331F441FAA1FA9F335D042
:1022A0000E2E3AF0E0E832D091505040E695001CF6
:1022B000CAF72BD0FE2F29D0660F771F881FBB1FB0
:1022C000261737074807AB07B0E809F0BB0B802D8E
:1022D000BF01FF2793585F4F3AF09E3F510578F0BA
:1022E0000C9451170C949C175F3FE4F3983ED4F381
:1022F000869577956795B795F7959F5FC9F7880F8E
:10230000911D9695879597F90895E1E0660F771FDF
:10231000881FBB1F621773078407BA0720F0621B70
:10232000730B840BBA0BEE1F88F7E09508950E949B
:102330009E116894B1110C949C1708950E94811706
:1023400088F09F5798F0B92F9927B751B0F0E1F076
:10235000660F771F881F991F1AF0BA95C9F714C026
:10236000B13091F00E949B17B1E008950C949B1737
:10237000672F782F8827B85F39F0B93FCCF386955F
:1023800077956795B395D9F73EF4909580957095BC
:1023900061957F4F8F4F9F4F0895CF93DF9382308A
:1023A000910510F482E090E0E0915A03F0915B0314
:1023B00020E030E0C0E0D0E0309711F14081518161
:1023C00048175907C0F04817590761F48281938173
:1023D000209719F09B838A832BC090935B03809393
:1023E0005A0326C02115310519F04217530718F476
:1023F0009A01BE01DF01EF010280F381E02DDCCF05
:102400002115310509F1281B390B2430310590F4D1
:1024100012968D919C9113976115710521F0FB0126
:102420009383828304C090935B0380935A03FD01DE
:10243000329644C0FD01E20FF31F81939193225025
:1024400031092D933C933AC02091580330915903A0
:10245000232B41F420911801309119013093590335
:102460002093580320911601309117012115310551
:1024700041F42DB73EB740911A0150911B01241B26
:10248000350BE0915803F0915903E217F307A0F4DC
:102490002E1B3F0B2817390778F0AC014E5F5F4FBA
:1024A0002417350748F04E0F5F1F50935903409390
:1024B00058038193919302C0E0E0F0E0CF01DF91F7
:1024C000CF9108950F931F93CF93DF93009709F453
:1024D0008CC0FC0132971382128200915A03109132
:1024E0005B030115110581F420813181820F931F57
:1024F00020915803309159032817390779F5F09343
:102500005903E093580371C0D80140E050E0AE1782
:10251000BF0750F412962D913C911397AD012115F0
:10252000310509F1D901F3CF9D01DA01338322830B
:1025300060817181860F971F8217930769F4EC0100
:1025400028813981260F371F2E5F3F4F318320832B
:102550008A819B8193838283452B29F4F0935B03CB
:10256000E0935A0342C01396FC93EE931297ED0149
:10257000499159919E01240F351FE217F30771F419
:1025800080819181840F951F029611969C938E9362
:102590008281938113969C938E931297E0E0F0E0F2
:1025A000D80112968D919C911397009719F0F8011C
:1025B0008C01F6CF8D919C9198012E5F3F4F820F39
:1025C000931F20915803309159032817390769F454
:1025D000309729F410925B0310925A0302C01382C1
:1025E00012821093590300935803DF91CF911F91EA
:1025F0000F910895A0E0B0E0E0E0F3E10C94D8176B
:10260000EC01009721F4CB010E94CD11B8C0FC0170
:10261000E60FF71F9C0122503109E217F30708F477
:10262000ACC0D9010D911C91119706171707B0F096
:102630000530110508F49FC0C80104978617970755
:1026400008F499C002501109061B170B019311934E
:102650006D937C93CF010E9462128DC05B01A01A22
:10266000B10A4C01800E911EA0915A03B0915B03F8
:1026700040E050E0E12CF12C109709F44AC0A81575
:10268000B905D1F56D907C901197630182E0C80E79
:10269000D11CCA14DB0480F1A3014A195B096A0149
:1026A00082E0C80ED11C1296BC9012971396AC9182
:1026B000B5E0CB16D10440F0B282A38351834083AE
:1026C000D9016D937C930AC00E5F1F4FC301800F29
:1026D000911FF90191838083EB2DFA2FE114F1040E
:1026E00031F0D7011396FC93EE93129744C0F09308
:1026F0005B03E0935A033FC08D919C91119748175B
:10270000590708F4AC017D0112960D90BC91A02DE3
:10271000B3CF809158039091590388159905E1F43E
:1027200046175707C8F4809116019091170100973A
:1027300041F48DB79EB740911A0150911B01841B43
:10274000950BE817F907C8F4F0935903E093580381
:10275000F901718360830FC0CB010E94CD117C0110
:10276000009759F0A801BE010E94C413CE010E9437
:102770006212C70104C0CE0102C080E090E0CDB774
:10278000DEB7EEE00C94F417FB01DC0102C001900F
:102790000D9241505040D8F70895FB01DC010190A3
:1027A0000D920020E1F70895EF920F931F93CF93BE
:1027B000DF93E80147FD02C034E001C034E1E42FBB
:1027C000440FFF0BF7FF03C0F195E195F109E32EEC
:1027D000022F2E2FAE010E947514CE01DF91CF91F2
:1027E0001F910F91EF9008958F929F92AF92BF9299
:1027F000CF92DF92EF92FF92CF93DF93EC0168814B
:1028000079818A819B81611571058105910521F48A
:1028100064E279ED8BE597E02DE133EF41E050E0A4
:102820000E94A21749015A019B01AC01A7EAB1E439
:102830000E94C1176B017C01ACEEB4EFA5019401BD
:102840000E94CF17DC01CB018C0D9D1DAE1DBF1D5D
:10285000B7FF03C00197A109B04888839983AA8371
:10286000BB83BC01CD019F77DF91CF91FF90EF90AB
:10287000DF90CF90BF90AF909F908F9008950E946F
:10288000F41308958CE191E00E94F413089560938D
:102890001C0170931D0180931E0190931F010895E8
:1028A000BB274A3031F4992322F4BDE290958195FB
:1028B0009F4F0C945C14BB27FB015527AA27880F58
:1028C000991FAA1FA41710F0A41B83955051B9F7A4
:1028D000A05DAA3308F0A95DA193009779F7B11123
:1028E000B1931192CB010C94DB164F925F926F92D1
:1028F0007F929F92AF92BF92CF92DF92EF92FF9220
:102900000F931F93CF93DF93CDB7DEB729970FB601
:10291000F894DEBF0FBECDBF6A01122FB02E2BE39D
:10292000201720F0FF24F394F00E02C0BCE3FB2E2E
:102930000F2D27E0AE014F5F5F4F0E940316AC01E1
:102940008981982F9970913031F0E1FC06C0E0FE4A
:1029500006C090E205C09DE203C09BE201C090E08A
:10296000EE2DE07183FF3CC0911102C083E001C0F5
:1029700084E0811718F4212F281B01C020E0E11109
:102980000BC0F601822F30E2882319F03193815079
:10299000FBCFC20ED11C20E0992329F0D6019C93D5
:1029A000F60131966F01C6010396E2FE0AC03EE4CD
:1029B000D6013C9341E411964C93119712963C93A7
:1029C00006C03EE6F601308341E641833283FC01D6
:1029D000322F40E2332309F442C041933150FACF01
:1029E00082FF44C0911102C083E001C084E08117DE
:1029F00018F4212F281B01C020E0E1110BC0F601C3
:102A0000822F30E2882319F031938150FBCFC20E20
:102A1000D11C20E0992329F0D6019C93F601319630
:102A20006F01C6010396E2FE0BC039E4D6013C9368
:102A30003EE411963C93119736E412963C9307C0FE
:102A400039E6F60130833EE6318336E63283FC0117
:102A5000322F40E2332319F041933150FBCFFC0178
:102A6000E20FF11D10828EEF9FEFB7C0F1E09111E0
:102A700001C0F0E06F2F70E01416150624F49A01DF
:102A80002F5F3F4F02C021E030E0260F371FBB20F1
:102A900029F06B2D70E06F5F7F4F02C060E070E047
:102AA000260F371F612F70E0261737071CF4121B03
:102AB000212F01C020E03E2D387159F4D601322F6C
:102AC00060E2332319F06D933150FBCFC20ED11C5D
:102AD00020E0FF2331F0D6019C93B6016F5F7F4F5A
:102AE0006B01E1110BC0F601922F30E3992319F02D
:102AF00031939150FBCFC20ED11C20E09F2D940F3B
:102B00003A81782F7071A72E84FF03C0313309F406
:102B10009150191624F4993018F098E001C091E012
:102B2000E42F852F57FF02C0E0E080E06E2F782F62
:102B3000E0E0F0E0AEE29A2E3A01691A71082A014B
:102B4000461A570A0B2D10E01195019511096F3F98
:102B50008FEF780729F4D6019C92C60101966C018B
:102B60004617570784F0661677066CF47F01E40C6D
:102B7000F51CA1E0B0E0AC0FBD1FEA0EFB1ED701B3
:102B80001196BC9002C090E3B92E61507109319644
:102B9000C60101967C016017710724F0D601BC9232
:102BA0006C01D5CF6417750741F4363320F4353303
:102BB00021F4A11002C081E3B82EF601B082F70122
:102BC000822F90E2882319F091938150FBCFF70177
:102BD000E20FF11D108280E090E029960FB6F89484
:102BE000DEBF0FBECDBFDF91CF911F910F91FF9040
:102BF000EF90DF90CF90BF90AF909F907F906F90BD
:102C00005F904F900895283008F027E03327DA01CD
:102C1000990F311D87FD916000966105710539F4AA
:102C200032602E5F3D9330E32A95E1F708959F3F90
:102C300030F080387105610509F03C5F3C5F3D93E1
:102C4000913008F08068911DDF93CF931F930F930D
:102C5000FF92EF92192F987F9695E92F969596956A
:102C6000E90FFF27E75DFD4F99273327EE24FF2467
:102C7000A701E70105900894079428F4360FE71E92
:102C8000F81E491F511D660F771F881F991F069454
:102C9000A1F70590079428F4E70EF81E491F561F68
:102CA000C11D770F881F991F661F0694A1F7059015
:102CB000079428F4F80E491F561FC71FD11D880F0F
:102CC000991F661F771F0694A1F70590079420F4BB
:102CD000490F561FC71FD81F990F661F771F881FE0
:102CE0000694A9F784911095177041F0D695C79571
:102CF00057954795F794E7941A95C1F7EFECF1E0F3
:102D000068941590159135916591959105907FE2A4
:102D10007395E118F10A430B560BC90BD009C0F7A4
:102D2000E10CF11E431F561FC91FD01D7EF47033E6
:102D300011F48A95E6CFE894015030F0080F0AF4B8
:102D40000027021708F4202F2395022F7A3328F04A
:102D500079E37D932A95E9F710C07D932A9589F64A
:102D6000069497956795379517951794E118F10A8A
:102D7000430B560BC90BD00998F023957E917395A0
:102D80007A3308F070E37C932013B8F77E9170617A
:102D90007D9330F0839571E37D9370E32A95E1F79D
:102DA0001124EF90FF900F911F91CF91DF91992700
:102DB00087FD90950895DC01FC01672F71917723C1
:102DC000E1F7329704C07C916D9370836291AE17E6
:102DD000BF07C8F308950E942D1708F481E00895F5
:102DE000E89409C097FB3EF49095809570956195A5
:102DF0007F4F8F4F9F4F9923A9F0F92F96E9BB275B
:102E00009395F695879577956795B795F111F8CFD6
:102E1000FAF4BB0F11F460FF1BC06F5F7F4F8F4F41
:102E20009F4F16C0882311F096E911C0772321F037
:102E30009EE8872F762F05C0662371F096E8862FCF
:102E400070E060E02AF09A95660F771F881FDAF726
:102E5000880F9695879597F90895990F0008550F53
:102E6000AA0BE0E8FEEF16161706E807F907C0F010
:102E700012161306E407F50798F0621B730B840B18
:102E8000950B39F40A2661F0232B242B252B21F4F2
:102E900008950A2609F4A140A6958FEF811D811D92
:102EA000089597F99F6780E870E060E008959FEFCC
:102EB00080EC089500240A941616170618060906D1
:102EC000089500240A9412161306140605060895A0
:102ED000092E0394000C11F4882352F0BB0F40F428
:102EE000BF2B11F460FF04C06F5F7F4F8F4F9F4F68
:102EF000089557FD9058440F551F59F05F3F71F0EA
:102F00004795880F97FB991F61F09F3F79F0879550
:102F10000895121613061406551FF2CF4695F1DFD9
:102F200008C0161617061806991FF1CF8695710569
:102F3000610508940895E894BB2766277727CB019D
:102F400097F90895052E97FB1EF400940E94B91777
:102F500057FD07D00E940B1807FC03D04EF40C94C9
:102F6000B91750954095309521953F4F4F4F5F4F82
:102F7000089590958095709561957F4F8F4F9F4FE5
:102F800008950E942D18A59F900DB49F900DA49FA9
:102F9000800D911D11240895B7FF0C94C1170E9454
:102FA000C117821B930B08952F923F924F925F920D
:102FB0006F927F928F929F92AF92BF92CF92DF9249
:102FC000EF92FF920F931F93CF93DF93CDB7DEB7AE
:102FD000CA1BDB0B0FB6F894DEBF0FBECDBF099442
:102FE0002A88398848885F846E847D848C849B8499
:102FF000AA84B984C884DF80EE80FD800C811B81A7
:10300000AA81B981CE0FD11D0FB6F894DEBF0FBED5
:10301000CDBFED010895A1E21A2EAA1BBB1BFD0135
:103020000DC0AA1FBB1FEE1FFF1FA217B307E407A7
:10303000F50720F0A21BB30BE40BF50B661F771FFF
:10304000881F991F1A9469F76095709580959095DF
:103050009B01AC01BD01CF010895A29FB001B39FB8
:10306000C001A39F700D811D1124911DB29F700D91
:10307000811D1124911D089511E0C6E6D1E004C020
:10308000FE010E94B2102196C736D107C9F7F89405
:02309000FFCF70
:10309200FFFFFFFF00E10000000000004C024C02B5
:1030A2004C024C024C0200005C0380000100000054
:1030B20000C18081000000000000001102C8073238
:1030C20002F0020E032702000000004E022B0A1A31
:1030D2000AFF09D1094D02536F72546553204761AB
:1030E2007465776179004761746577617920696EEB
:1030F2006974207375636365656465642E00416E4F
:10310200206576616C756174696F6E20696E746595
:103112007276616C20686173207374617274656485
:103122000053656E64696E67207061636B65743A03
:1031320020000D0A0047573037004E657874207022
:1031420061636B657420696E2000416E2041434BC0
:1031520020526563656976656420537563636573A0
:1031620066756C6C79004E756D626572206F6620B3
:1031720041636B2052656365697665643A2000524B
:103182005353493A2000456E64206F662074686587
:1031920020696E74657276616C00524553554C54C9
:1031A20053004E756D626572206F662062656163C1
:1031B2006F6E2073656E743A20004E756D62657293
:1031C200206F662061636B20726563656976656452
:1031D2003A2000526174696F3A20004E657874207B
:1031E200496E74657276616C2073746172742069C1
:1031F2006E203130207365636F6E6473002D2D2D48
:103202002D2D2D2D2D2D2D2D2D2D2D2D2D2D2D2DEC
:103212002D2D2D2D2D2D2D2D2D2D2D2D2D2D2D2DDC
:103222002D2D005374617274696E67204C6F526168
:10323200206D6F64756C65206661696C6564210040
:00000001FF
